:020000040800F2
:1000000000500020C9370008191500081B1500080A
:100010001D1500081F15000821150008000000002C
:100020000000000000000000000000002315000890
:1000300025150008000000002715000829150008F4
:10004000113800081138000811380008113800086C
:10005000113800081138000811380008113800085C
:10006000113800081138000811380008113800084C
:10007000113800081138000811380008113800083C
:10008000113800081138000811380008113800082C
:10009000113800081138000811380008113800081C
:1000A000113800081138000811380008113800080C
:1000B00011380008113800081138000811380008FC
:1000C00011380008113800081138000811380008EC
:1000D00011380008113800081138000811380008DC
:1000E0003115000811380008113800080000000020
:1000F0000000000000000000000000000000000000
:0C01000000000000000000005FF808F1A3
:1001100010B5054C237833B9044B13B10448AFF341
:1001200000800123237010BDB809002000000000EA
:100130004099000808B5034B1BB103490348AFF3CE
:10014000008008BD00000000BC09002040990008A4
:10015000844641EA000313F0030349D1403A23D314
:100160000B6803604B6843608B688360CB68C36037
:100170000B6903614B6943618B698361CB69C3611F
:100180000B6A03624B6A43628B6A8362CB6AC36207
:100190000B6B03634B6B43638B6B8363CB6BC363EF
:1001A00040304031403ADBD230320BD30B68036031
:1001B0004B6843608B688360CB68C360103010313C
:1001C000103AF3D20C3205D351F8043B40F8043B0B
:1001D000043AF9D2043208D0D2071CBF11F8013B0F
:1001E00000F8013B01D30B8803806046704700BFD5
:1001F000082A13D38B07B1D010F00303AED0C3F19C
:100200000403D21ADB071CBF11F8013B00F8013BC5
:10021000A4D331F8023B20F8023B9FE7043AD9D33C
:10022000013A11F8013B00F8013BF9D20B78037059
:100230004B7843708B7883706046704781F0004143
:1002400002E000BF83F0004330B54FEA41044FEABB
:10025000430594EA050F08BF90EA020F1FBF54EA56
:10026000000C55EA020C7FEA645C7FEA655C00F0F2
:10027000E2804FEA5454D4EB5555B8BF6D420CDDC3
:100280002C4480EA020281EA030382EA000083EA46
:10029000010180EA020281EA0303362D88BF30BDE6
:1002A00011F0004F4FEA01314FF4801C4CEA11313C
:1002B00002D0404261EB410113F0004F4FEA03339B
:1002C0004CEA133302D0524263EB430394EA050F26
:1002D00000F0A780A4F10104D5F1200E0DDB02FA95
:1002E0000EFC22FA05F2801841F1000103FA0EF229
:1002F000801843FA05F359410EE0A5F120050EF1EF
:10030000200E012A03FA0EFC28BF4CF0020C43FA1F
:1003100005F3C01851EBE37101F0004507D54FF02C
:10032000000EDCF1000C7EEB00006EEB0101B1F57C
:10033000801F1BD3B1F5001F0CD349085FEA3000C2
:100340004FEA3C0C04F101044FEA445212F5800FCD
:1003500080F09A80BCF1004F08BF5FEA500C50F16A
:10036000000041EB045141EA050130BD5FEA4C0C4D
:10037000404141EB0101013C28BFB1F5801FE9D2AA
:1003800091F0000F04BF01460020B1FA81F308BFCD
:100390002033A3F10B03B3F120020CDA0C3208DD99
:1003A00002F1140CC2F10C0201FA0CF021FA02F174
:1003B0000CE002F11402D8BFC2F1200C01FA02F1E4
:1003C00020FA0CFCDCBF41EA0C019040E41AA2BF09
:1003D00001EB0451294330BD6FEA04041F3C1CDAD1
:1003E0000C340EDC04F11404C4F1200220FA04F0F1
:1003F00001FA02F340EA030021FA04F345EA03019B
:1004000030BDC4F10C04C4F1200220FA02F001FA5C
:1004100004F340EA0300294630BD21FA04F02946DE
:1004200030BD94F0000F83F4801306BF81F4801177
:100430000134013D4EE77FEA645C18BF7FEA655CEA
:1004400029D094EA050F08BF90EA020F05D054EABC
:10045000000C04BF1946104630BD91EA030F1EBFC1
:100460000021002030BD5FEA545C05D140004941C5
:1004700028BF41F0004130BD14F580043CBF01F5B8
:10048000801130BD01F0004545F0FE4141F470019E
:100490004FF0000030BD7FEA645C1ABF1946104679
:1004A0007FEA655C1CBF0B46024650EA013406BF7A
:1004B00052EA033591EA030F41F4002130BD00BF39
:1004C00090F0000F04BF0021704730B54FF48064F6
:1004D00004F132044FF000054FF0000150E700BF77
:1004E00090F0000F04BF0021704730B54FF48064D6
:1004F00004F1320410F0004548BF40424FF00001C3
:100500003EE700BF42004FEAE2014FEA31014FEA05
:1005100002701FBF12F07F4393F07F4F81F0605154
:10052000704732F07F4208BF704793F07F4F04BF9F
:1005300041F40021704730B54FF4607401F000457C
:1005400021F000411CE700BF50EA010208BF7047DC
:1005500030B54FF000050AE050EA010208BF7047CD
:1005600030B511F0004502D5404261EB41014FF436
:10057000806404F132045FEA915C3FF4D8AE4FF03E
:1005800003025FEADC0C18BF03325FEADC0C18BF21
:10059000033202EBDC02C2F1200300FA03FC20FA72
:1005A00002F001FA03FE40EA0E0021FA02F11444BF
:1005B000BDE600BF70B54FF0FF0C4CF4E06C1CEAD8
:1005C00011541DBF1CEA135594EA0C0F95EA0C0F49
:1005D00000F0DEF82C4481EA030621EA4C5123EABC
:1005E0004C5350EA013518BF52EA033541F48011EB
:1005F00043F4801338D0A0FB02CE4FF00005E1FB9E
:1006000002E506F00042E0FB03E54FF00006E1FBE7
:1006100003569CF0000F18BF4EF0010EA4F1FF042A
:10062000B6F5007F64F5407404D25FEA4E0E6D416A
:1006300046EB060642EAC62141EA55514FEAC5207B
:1006400040EA5E504FEACE2EB4F1FD0C88BFBCF5F7
:10065000E06F1ED8BEF1004F08BF5FEA500E50F1A8
:10066000000041EB045170BD06F0004646EA01016E
:1006700040EA020081EA0301B4EB5C04C2BFD4EBA0
:100680000C0541EA045170BD41F480114FF0000E99
:10069000013C00F3AB8014F1360FDEBF002001F007
:1006A000004170BDC4F10004203C35DA0C341BDC81
:1006B00004F11404C4F1200500FA05F320FA04F053
:1006C00001FA05F240EA020001F0004221F0004187
:1006D00010EBD37021FA04F642EB06015EEA430EFA
:1006E00008BF20EAD37070BDC4F10C04C4F120052A
:1006F00000FA04F320FA05F001FA04F240EA0200DD
:1007000001F0004110EBD37041F100015EEA430EAD
:1007100008BF20EAD37070BDC4F1200500FA05F2CD
:100720004EEA020E20FA04F301FA05F243EA02034C
:1007300021FA04F001F0004121FA04F220EA02005B
:1007400000EBD3705EEA430E08BF20EAD37070BDA1
:1007500094F0000F0FD101F00046400041EB010181
:1007600011F4801F08BF013CF7D041EA060195F063
:10077000000F18BF704703F00046520043EB03031D
:1007800013F4801F08BF013DF7D043EA060370470A
:1007900094EA0C0F0CEA135518BF95EA0C0F0CD015
:1007A00050EA410618BF52EA4306D1D181EA03015B
:1007B00001F000414FF0000070BD50EA410606BF55
:1007C0001046194652EA430619D094EA0C0F02D19A
:1007D00050EA013613D195EA0C0F05D152EA0336DF
:1007E0001CBF104619460AD181EA030101F00041FD
:1007F00041F0FE4141F470014FF0000070BD41F046
:10080000FE4141F4780170BD70B54FF0FF0C4CF41F
:10081000E06C1CEA11541DBF1CEA135594EA0C0F3E
:1008200095EA0C0F00F0A7F8A4EB050481EA030E8B
:1008300052EA03354FEA013100F088804FEA033372
:100840004FF0805545EA131343EA12634FEA022240
:1008500045EA111545EA10654FEA00260EF0004101
:100860009D4208BF964244F1FD0404F5407402D253
:100870005B084FEA3202B61A65EB03055B084FEAE4
:1008800032024FF480104FF4002CB6EB020E75EBE1
:10089000030E22BFB61A754640EA0C005B084FEA09
:1008A0003202B6EB020E75EB030E22BFB61A754686
:1008B00040EA5C005B084FEA3202B6EB020E75EBD1
:1008C000030E22BFB61A754640EA9C005B084FEA49
:1008D0003202B6EB020E75EB030E22BFB61A754656
:1008E00040EADC0055EA060E18D04FEA051545EA45
:1008F00016754FEA06164FEAC30343EA52734FEAEE
:10090000C2025FEA1C1CC0D111F4801F0BD141EA66
:1009100000014FF000004FF0004CB6E711F4801FCB
:1009200004BF01430020B4F1FD0C88BFBCF5E06FAB
:100930003FF6AFAEB5EB030C04BFB6EB020C5FEABB
:10094000500C50F1000041EB045170BD0EF0004E10
:100950004EEA113114EB5C04C2BFD4EB0C0541EA42
:10096000045170BD41F480114FF0000E013C90E63F
:1009700045EA060E8DE60CEA135594EA0C0F08BF03
:1009800095EA0C0F3FF43BAF94EA0C0F0AD150EA02
:1009900001347FF434AF95EA0C0F7FF425AF104695
:1009A00019462CE795EA0C0F06D152EA03353FF4BD
:1009B000FDAE1046194622E750EA410618BF52EA3A
:1009C00043067FF4C5AE50EA41047FF40DAF52EA0E
:1009D00043057FF4EBAE12E74FF0FF3C06E000BFAB
:1009E0004FF0010C02E000BF4FF0010C4DF804CDB8
:1009F0004FEA410C7FEA6C5C4FEA430C18BF7FEA78
:100A00006C5C1BD001B050EA410C0CBF52EA430CA5
:100A100091EA030F02BF90EA020F0020704710F125
:100A2000000F91EA030F58BF994208BF90422CBFB4
:100A3000D8176FEAE37040F0010070474FEA410CAD
:100A40007FEA6C5C02D150EA013C07D14FEA430CCB
:100A50007FEA6C5CD6D152EA033CD3D05DF8040B3C
:100A6000704700BF8446104662468C46194663466E
:100A700000E000BF01B5FFF7B7FF002848BF10F145
:100A8000000F01BD4DF808EDFFF7F4FF0CBF01208A
:100A900000205DF808FB00BF4DF808EDFFF7EAFF06
:100AA00034BF012000205DF808FB00BF4DF808EDC1
:100AB000FFF7E0FF94BF012000205DF808FB00BFB6
:100AC0004DF808EDFFF7CEFF94BF012000205DF840
:100AD00008FB00BF4DF808EDFFF7C4FF34BF01204D
:100AE00000205DF808FB00BF4FEA410C7FEA6C5C18
:100AF00002D150EA013C0AD14FEA430C7FEA6C5C18
:100B000002D152EA033C02D14FF0000070474FF08F
:100B1000010070474FEA410212F5001215D211D5BB
:100B20006FF47873B3EB625212D94FEAC12343F0EA
:100B3000004343EA505311F0004F23FA02F018BF6C
:100B4000404270474FF00000704750EA013005D135
:100B500011F0004008BF6FF0004070474FF00000F8
:100B6000704700BF4FEA4102B2F1E04324BFB3F542
:100B7000001CDCF1FE5C0DD901F0004C4FEAC00214
:100B80004CEA5070B2F1004F40EB830008BF20F0F8
:100B90000100704711F0804F21D113F13872BCBFB2
:100BA00001F00040704741F480114FEA5252C2F107
:100BB0001802C2F1200C10FA0CF320FA02F018BF50
:100BC00040F001004FEAC1234FEAD32303FA0CFCA3
:100BD00040EA0C0023FA02F34FEA4303CCE77FEA32
:100BE000625307D150EA01331EBF4FF0FE4040F47C
:100BF0004000704701F0004040F0FE4040F400002B
:100C0000704700BF80F0004002E000BF81F000416B
:100C100042001FBF5FEA410392EA030F7FEA226CA2
:100C20007FEA236C6AD04FEA1262D2EB1363C1BF32
:100C3000D218414048404140B8BF5B42192B88BFA1
:100C4000704710F0004F40F4000020F07F4018BFC4
:100C5000404211F0004F41F4000121F07F4118BFE4
:100C6000494292EA030F3FD0A2F1010241FA03FC8C
:100C700010EB0C00C3F1200301FA03F100F0004374
:100C800002D5494260EB4000B0F5000F13D3B0F13C
:100C9000807F06D340084FEA310102F10102FE2AAB
:100CA00051D2B1F1004F40EBC25008BF20F001001B
:100CB00040EA03007047490040EB0000013A28BFBA
:100CC000B0F5000FEDD2B0FA80FCACF1080CB2EB3D
:100CD0000C0200FA0CF0AABF00EBC25052421843BB
:100CE000BCBFD0401843704792F0000F81F4000160
:100CF00006BF80F400000132013BB5E74FEA410333
:100D00007FEA226C18BF7FEA236C21D092EA030F9E
:100D100004D092F0000F08BF0846704790EA010F18
:100D20001CBF0020704712F07F4F04D1400028BF45
:100D300040F00040704712F100723CBF00F5000027
:100D4000704700F0004343F0FE4040F4000070475D
:100D50007FEA226216BF08467FEA23630146420209
:100D600006BF5FEA412390EA010F40F4800070471C
:100D70004FF0000304E000BF10F0004348BF4042C2
:100D80005FEA000C08BF704743F0964301464FF0FE
:100D900000001CE050EA010208BF70474FF000035A
:100DA0000AE000BF50EA010208BF704711F000439B
:100DB00002D5404261EB41015FEA010C02BF84466B
:100DC0000146002043F0B64308BFA3F18053A3F5CA
:100DD0000003BCFA8CF2083AA3EBC25310DB01FA11
:100DE00002FC634400FA02FCC2F12002BCF1004F95
:100DF00020FA02F243EB020008BF20F00100704726
:100E000002F1200201FA02FCC2F1200250EA4C0079
:100E100021FA02F243EB020008BF20EADC707047BF
:100E20004FF0FF0C1CEAD0521EBF1CEAD15392EACD
:100E30000C0F93EA0C0F6FD01A4480EA010C4002A9
:100E400018BF5FEA41211ED04FF0006343EA501003
:100E500043EA5111A0FB01310CF00040B1F5000F45
:100E60003EBF490041EAD3715B0040EA010062F1F4
:100E70007F02FD2A1DD8B3F1004F40EBC25008BFDE
:100E800020F00100704790F0000F0CF0004C08BFFC
:100E900049024CEA502040EA51207F3AC2BFD2F1C9
:100EA000FF0340EAC250704740F400004FF00003D7
:100EB000013A5DDC12F1190FDCBF00F00040704711
:100EC000C2F10002410021FA02F1C2F1200200FA4F
:100ED00002FC5FEA310040F1000053EA4C0308BF16
:100EE00020EADC70704792F0000F00F0004C02BF67
:100EF000400010F4000F013AF9D040EA0C0093F0E2
:100F0000000F01F0004C02BF490011F4000F013B3B
:100F1000F9D041EA0C018FE70CEAD15392EA0C0FA9
:100F200018BF93EA0C0F0AD030F0004C18BF31F014
:100F3000004CD8D180EA010000F00040704790F0EA
:100F4000000F17BF90F0004F084691F0000F91F08E
:100F5000004F14D092EA0C0F01D142020FD193EA54
:100F60000C0F03D14B0218BF084608D180EA0100DC
:100F700000F0004040F0FE4040F40000704740F0B8
:100F8000FE4040F4400070474FF0FF0C1CEAD05286
:100F90001EBF1CEAD15392EA0C0F93EA0C0F69D0E2
:100FA000A2EB030280EA010C49024FEA402037D04D
:100FB0004FF0805343EA111143EA10130CF0004044
:100FC0008B4238BF5B0042F17D024FF4000C8B4234
:100FD00024BF5B1A40EA0C00B3EB510F24BFA3EB14
:100FE000510340EA5C00B3EB910F24BFA3EB9103E4
:100FF00040EA9C00B3EBD10F24BFA3EBD10340EA3E
:10100000DC001B0118BF5FEA1C1CE0D1FD2A3FF683
:1010100050AF8B4240EBC25008BF20F00100704738
:101020000CF0004C4CEA50207F32C2BFD2F1FF03DB
:1010300040EAC250704740F400004FF00003013A0C
:1010400037E792F0000F00F0004C02BF400010F4B0
:10105000000F013AF9D040EA0C0093F0000F01F0C4
:10106000004C02BF490011F4000F013BF9D041EAE6
:101070000C0195E70CEAD15392EA0C0F08D1420219
:101080007FF47DAF93EA0C0F7FF470AF084676E7EC
:1010900093EA0C0F04D14B023FF44CAF08466EE7C5
:1010A00030F0004C18BF31F0004CCAD130F0004293
:1010B0007FF45CAF31F000437FF43CAF5FE700BFEB
:1010C00042000ED2B2F1FE4F0BD34FF09E03B3EBB2
:1010D000126209D44FEA002343F0004323FA02F0DE
:1010E00070474FF00000704712F1610F01D14202CA
:1010F00002D14FF0FF3070474FF00000704700BF43
:1011000053B94AB9002908BF00281CBF4FF0FF316E
:101110004FF0FF3000F076B9ADF1080C6DE904CE68
:1011200000F006F8DDF804E0DDE9022304B07047C2
:101130002DE9F047089E0D4604468846002B4DD108
:101140008A42944668D9B2FA82F252B101FA02F3A5
:10115000C2F1200120FA01F10CFA02FC41EA030875
:1011600094404FEA1C41B8FBF1F71FFA8CFE01FBDB
:10117000178807FB0EF0230C43EA084398420AD96C
:101180001CEB030307F1FF3580F01E81984240F20B
:101190001B81023F63441B1AB3FBF1F001FB1033C8
:1011A00000FB0EFEA4B244EA0344A6450AD91CEB98
:1011B000040400F1FF3380F00981A64540F2068166
:1011C000644402380021A4EB0E0440EA07401EB13B
:1011D0000023D440C6E90043BDE8F0878B4208D91C
:1011E000002E00F0EE800021C6E900050846BDE8AB
:1011F000F087B3FA83F100294AD1AB4202D382428D
:1012000000F2FC80841A65EB030301209846002E4F
:10121000E2D0C6E90048DFE702B9FFDEB2FA82F2A7
:10122000002A40F09180A1EB0C0001214FEA1C47FD
:101230001FFA8CFEB0FBF7F307FB1300250C45EA01
:1012400000450EFB03F0A84208D91CEB050503F18D
:10125000FF3802D2A84200F2CE8043462D1AB5FBD9
:10126000F7F007FB10550EFB00FEA4B244EA05445C
:10127000A64508D91CEB040400F1FF3502D2A645AF
:1012800000F2B6802846A4EB0E0440EA03409EE735
:10129000C1F120078B4022FA07FC4CEA030C25FA27
:1012A00007FA4FEA1C49BAFBF9F820FA07F309FBE1
:1012B00018AA8D401FFA8CFE1D4300FA01F308FBAB
:1012C0000EF02C0C44EA0A44A04202FA01F20BD9B7
:1012D0001CEB040408F1FF3A80F08880A04240F241
:1012E0008580A8F102086444241AB4FBF9F009FBD4
:1012F000104400FB0EFEADB245EA0444A64508D9F1
:101300001CEB040400F1FF356CD2A6456AD9023803
:10131000644440EA0840A0FB0295A4EB0E04AC42F2
:10132000C846AE4656D353D0002E69D0B3EB080260
:1013300064EB0E0422FA01F304FA07F71F43CC40D2
:10134000C6E90074002147E70CFA02FCC2F1200153
:1013500025FA01F34FEA1C4720FA01F195400D43AD
:10136000B3FBF7F107FB11331FFA8CFE280C40EAA0
:10137000034001FB0EF3834204FA02F408D91CEB8C
:10138000000001F1FF382FD283422DD90239604489
:10139000C01AB0FBF7F307FB1300ADB245EA0045F6
:1013A00003FB0EF0A84208D91CEB050503F1FF383A
:1013B00016D2A84214D9023B6544281A43EA0141D7
:1013C00038E73146304607E72F46E4E61846F9E6A7
:1013D0004B45A9D2B9EB020865EB0C0E0138A3E727
:1013E0004346EAE7284694E74146D1E7D0467BE703
:1013F0006444023847E7023B65442FE7084606E7A6
:101400003146E9E6704700BF72B6FEE700B591B01D
:101410002822002106A802F021FA0023019302935A
:10142000039304930593012206924FF480330793AC
:101430004FF4003108910A9202220D920E934FF45C
:10144000E0130F9306A800F027F980B90F2301934A
:1014500002210291002303934FF4806204920593CA
:1014600001A800F051FB20B911B05DF804FBFFF7B3
:10147000CBFFFFF7C9FF000000B595B000F0BEF844
:10148000FFF7C4FF00F0BAFD00F038FE00F08CFE5C
:1014900000F04AFF00F0E2FE02F000F819490DA842
:1014A00002F080F84FF48041174800F021FD0DA8AC
:1014B00002F022F91398FFF725F8CDE90A011298F6
:1014C000FFF720F8CDE908011198FFF71BF8CDE9E7
:1014D00006011098FFF716F8CDE904010F98FFF701
:1014E00011F8CDE90201094B00936F23084A4FF42C
:1014F0008051084801F04EFF4FF4FA7000F0A2F856
:10150000D0E700BF000A0020001001408C990008BD
:101510005899000868990008FEE7FEE7FEE7FEE735
:10152000FEE770477047704708B500F079F808BDCE
:1015300008B54FF4005000F0E5FC08BDB0F5005FC1
:1015400000D0704700B583B0054B0093CD23054A0A
:1015500041F20201044801F01DFF03B05DF804FBF5
:10156000B499000894990008AC99000882B00E4B19
:101570009A6942F001029A619A6902F001020092AE
:10158000009ADA6942F08052DA61DB6903F0805335
:101590000193019B054A536823F0E06343F0007315
:1015A000536002B0704700BF0010024000000140CD
:1015B00010B504460E4B18784FF47A73B3FBF0F372
:1015C0000C4A1068B0FBF3F000F002FD68B90F2C74
:1015D00001D901200AE0002221464FF0FF3000F03F
:1015E000B1FC054B1C60002000E0012010BD00BFD5
:1015F00000000020080000200400002008B5074A71
:10160000136843F010031360032000F089FC0F20DF
:10161000FFF7CEFFFFF7AAFF002008BD0020024021
:10162000034A1168034B1B780B441360704700BFDB
:10163000D409002000000020014B1868704700BF4B
:10164000D409002038B50446FFF7F6FF0546B4F18B
:10165000FF3F02D0044B1B781C44FFF7EDFF401BFB
:10166000A042FAD338BD00BF0000002082B0084B72
:101670001B68084AA2FB03235B0A00FB03F30193E8
:1016800000BF019B5A1E0192002BF9D102B0704796
:1016900008000020D34D6210002800F0F18170B5E1
:1016A00082B00446036813F0010F2CD0994B5B689D
:1016B00003F00C03042B1DD0964B5B6803F00C0366
:1016C000082B12D06368B3F5803F41D0002B55D171
:1016D00003F1804303F504331A6822F480321A6060
:1016E0001A6822F480221A6037E08A4B5B6813F490
:1016F000803FE7D0874B1B6813F4003F03D063683B
:10170000002B00F0BF81236813F0020F75D0814BCE
:101710005B6813F00C0F5FD07E4B5B6803F00C032B
:10172000082B54D02369002B00F08A807A4B0122C9
:101730001A60FFF781FF0546764B1B6813F0020F16
:1017400075D1FFF779FF401B0228F5D903209EE1F0
:10175000704A136843F480331360636843B3FFF740
:101760006BFF05466B4B1B6813F4003FCBD1FFF7B3
:1017700063FF401B6428F5D9032088E1B3F5A02F4F
:1017800009D0644B1A6822F480321A601A6822F475
:1017900080221A60E1E703F18043A3F53C331A6825
:1017A00042F480221A601A6842F480321A60D4E748
:1017B000FFF742FF0546574B1B6813F4003FA2D0CA
:1017C000FFF73AFF401B6428F5D903205FE1514B36
:1017D0005B6813F4803FA5D14E4B1B6813F0020FDA
:1017E00003D02369012B40F04F814A4A136823F04C
:1017F000F803616943EAC1031360236813F0080F1B
:1018000033D0A369002B5CD0434B0122C3F8802462
:10181000FFF712FF05463F4B5B6A13F0020F21D121
:10182000FFF70AFF401B0228F5D903202FE1394AB0
:10183000136823F0F803616943EAC1031360DCE72E
:10184000354B00221A60FFF7F7FE0546314B1B6847
:1018500013F0020FD1D0FFF7EFFE401B0228F5D99D
:10186000032014E10120FFF701FF236813F0040FA8
:1018700000F09680274BDB6913F0805F34D1254B55
:10188000DA6942F08052DA61DB6903F08053019338
:10189000019B0125214B1B6813F4807F26D0E36850
:1018A000012B3DD0002B53D103F1804303F50433CA
:1018B0001A6A22F001021A621A6A22F004021A62FB
:1018C00033E0154B0022C3F88024FFF7B5FE054630
:1018D000104B5B6A13F0020FC7D0FFF7ADFE401B41
:1018E0000228F5D90320D2E00025D3E70B4A13687C
:1018F00043F480731360FFF79FFE0646074B1B6897
:1019000013F4807FCBD1FFF797FE801B6428F5D9B5
:101910000320BCE000100240000042420070004082
:101920005F4A136A43F001031362E36833B3FFF7BE
:1019300083FE06465A4B1B6A13F0020F2FD1FFF7A6
:101940007BFE801B41F288339842F3D903209EE04E
:10195000052B09D0524B1A6A22F001021A621A6A48
:1019600022F004021A62E0E74D4B1A6A42F00402C8
:101970001A621A6A42F001021A62D6E7FFF75CFEA9
:101980000646474B1B6A13F0020F08D0FFF754FEC0
:10199000801B41F288339842F3D9032077E0E5B900
:1019A000E369002B72D03E4A526802F00C02082A0A
:1019B00056D0022B17D03B4B00221A66FFF73CFE95
:1019C0000446374B1B6813F0007F47D0FFF734FE07
:1019D000001B0228F5D9032059E0314AD36923F0CE
:1019E0008053D361DCE72F4B00221A66FFF724FEF9
:1019F00005462B4B1B6813F0007F06D0FFF71CFE3B
:101A0000401B0228F5D9032041E0236AB3F5803F4B
:101A10001AD023494B6823F47413226A606A024384
:101A200013434B601F4B01221A66FFF705FE044665
:101A30001B4B1B6813F0007F0ED1FFF7FDFD001B51
:101A40000228F5D9032022E0154A536823F4003315
:101A5000A1680B435360DCE7002018E0002016E08B
:101A6000012B16D00E4B5B6803F48031226A914241
:101A700011D103F47013626A93420ED1002006E084
:101A800001207047012002E0012000E0002002B0A8
:101A900070BD0120FBE70120F9E70120F7E700BF57
:101AA0000010024000004242114B5A6802F00C0341
:101AB000042B18D0082B18D1C2F383430D49C85CFE
:101AC00012F4803F0BD00A4B5B68C3F340430A4AD1
:101AD000D35C0A4A02FB00F0B0FBF3F07047084BFE
:101AE00003FB00F07047054870470648704700BF89
:101AF00000100240CC990008DC9900080024F40092
:101B000000093D0000127A00002800F0A08070B5A6
:101B10000D460446524B1B6803F007038B420BD261
:101B20004F4A136823F007030B431360136803F055
:101B300007038B4240F08D80236813F0020F17D00B
:101B400013F0040F04D0474A536843F4E063536032
:101B5000236813F0080F04D0424A536843F46053DB
:101B60005360404A536823F0F003A1680B4353606D
:101B7000236813F0010F31D06368012B20D0022BB2
:101B800025D0384A126812F0020F64D035494A68ED
:101B900022F0030213434B60FFF74EFD0646314B24
:101BA0005B6803F00C036268B3EB820F16D0FFF79B
:101BB00043FD801B41F288339842F0D9032045E071
:101BC000284A126812F4003FE0D101203EE0254A85
:101BD000126812F0007FD9D1012037E0204B1B683A
:101BE00003F00703AB420AD91D4A136823F0070329
:101BF0002B431360136803F00703AB422DD1236816
:101C000013F0040F06D0174A536823F4E063E16829
:101C10000B435360236813F0080F07D0114A536831
:101C200023F46053216943EAC1035360FFF73CFF8B
:101C30000C4B5B68C3F303130B4AD35CD8400B4BCC
:101C400018600B4B1868FFF7B3FC002070BD012033
:101C500070470120FAE70120F8E70120F6E700BF0E
:101C60000020024000100240E09900080800002017
:101C700004000020014B1868704700BF08000020D6
:101C800008B5FFF7F7FF044B5B68C3F30223034A71
:101C9000D35CD84008BD00BF00100240F099000896
:101CA00008B5FFF7E7FF044B5B68C3F3C223034AA1
:101CB000D35CD84008BD00BF00100240F099000876
:101CC00070B582B00024A446A6E0804DAA4210D090
:101CD00007D97F4DAA420CD005F58035AA4208D01D
:101CE00013E0A5F58015AA4203D005F57025AA4298
:101CF00007D18A68002A58D0012A51D043610824AC
:101D000003E0A5F58015AA42F3D0BEF1FF0F4ED82F
:101D10000646BEF1FF0F4CD84FEA8C0233680F2500
:101D2000954023EA050304FA02F2134333604B683B
:101D300013F0805F6ED0674B9A6942F001029A619E
:101D40009B6903F001030193019B4FEA9C02951CE0
:101D5000614B53F825600CF003039D000F23AB404B
:101D600026EA03065D4B984229D003F5806398422A
:101D700000F08E8003F58063984200F08B8003F5BD
:101D80008063984219D004231AE0CC68BDE7CC6880
:101D90000434BAE7CC680834B7E7CC680C34B4E74D
:101DA00003610824B1E70024AFE70424ADE7061D72
:101DB000AFE7ACF108029200B0E7032300E0002394
:101DC000AB4033430232444D45F822304B6813F4A4
:101DD000801F61D0424A936843EA0E0393604B68C8
:101DE00013F4001F5ED03E4AD36843EA0E03D3606B
:101DF0004B6813F4003F5BD0394A536843EA0E0343
:101E000053604B6813F4803F58D0354A136843EA57
:101E10000E0313600CF1010C0A6832FA0CF353D074
:101E2000012303FA0CF302EA030E33EA0202F1D1B2
:101E30004A68122A3FF649AF122A3FF666AF01A55B
:101E400055F822F0F31C00088B1D0008951D0008B2
:101E5000A71D00080B1D00080B1D00080B1D000826
:101E60000B1D00080B1D00080B1D00080B1D0008B2
:101E70000B1D00080B1D00080B1D00080B1D0008A2
:101E80000B1D00080B1D00088F1D00089B1D00087E
:101E9000012395E7022393E7114A936823EA0E038F
:101EA00093609CE70E4AD36823EA0E03D3609FE752
:101EB0000B4A536823EA0E035360A2E7084A1368EB
:101EC00023EA0E031360A5E702B070BD00002210E4
:101ED00000003110001002400000014000080140E5
:101EE000000401400AB101617047090401617047B3
:101EF000C36801EA030221EA030141EA02410161E8
:101F00007047000008B5054B5B69034200D108BD6E
:101F1000024B5861FFF712FBF9E700BF00040140D4
:101F2000074AD36823F4E0631B041B0C000200F48F
:101F3000E060034343F0BF6343F40033D360704772
:101F400000ED00E000B5194BDB68C3F30223C3F1D9
:101F5000070CBCF1040F28BF4FF0040C03F1040E72
:101F6000BEF1060F18D9033B4FF0FF3E0EFA0CFCF2
:101F700021EA0C0199400EFA03F322EA0303194304
:101F800000280BDB0901C9B200F1604000F5614097
:101F900080F800135DF804FB0023E5E700F00F0074
:101FA0000901C9B2024B1954F4E700BF00ED00E08B
:101FB00014ED00E0002807DB00F01F0240090123B8
:101FC0009340024A42F82030704700BF00E100E031
:101FD0000138B0F1807F0BD24FF0E0235861054A01
:101FE000F02182F823100020986107221A617047BF
:101FF0000120704700ED00E0704700002DE9F0413E
:1020000088B000240494059406940794374B9A6989
:1020100042F010029A619A6902F010020092009A4E
:102020009A6942F020029A619A6902F020020192B4
:10203000019A9A6942F004029A619A6902F00402D4
:102040000292029A9A6942F008029A619B6903F02F
:1020500008030393039B264F01224FF44041384667
:10206000FFF740FF234D01224FF480612846FFF720
:1020700039FF22464FF400412846FFF733FF4FF463
:10208000005304931C4B0593069404A93846FFF7AC
:1020900017FE4FF4404304930126059606944FF033
:1020A0000208CDF81C8004A93846FFF709FE4FF45A
:1020B000007304930594069604A92846FFF700FED2
:1020C0004FF40443049305960694CDF81C8004A9AC
:1020D0002846FFF7F5FD224621462820FFF732FF6C
:1020E0002820FFF767FF08B0BDE8F081001002402C
:1020F00000100140000801400000111008B50B4815
:102100000B4B03601023436000238360C3600361B3
:102110004361037643768376C3760377437700F093
:1021200061F900B908BDFFF76FF9FBE7D809002096
:102130000064004010B586B000230293039304931B
:1021400005930268164B9A4201D006B010BD03F504
:10215000D633DA6942F00072DA61DA6902F00072AD
:102160000092009A9A6942F004029A619B6903F016
:1021700004030193019B4FF400630293094C02A9ED
:102180002046FFF79DFD4FF48053029302230393F3
:102190000323059302A92046FFF792FDD5E700BF70
:1021A000006400400008014008B50B480B4B036079
:1021B0000B4B436000238360C3604FF48042026195
:1021C00043618361C361036200F02CFC00B908BD68
:1021D000FFF71AF9FBE700BF000A00200054004097
:1021E000A086010010B586B00023029303930493E8
:1021F00005930268154B9A4201D006B010BD144CED
:10220000A36943F00803A361A36903F008030093E3
:10221000009B4FF44073029312230393032305930F
:1022200002A90C48FFF74CFD0B4A536843F0E063EA
:1022300043F002035360E36943F40013E361E3698D
:1022400003F400130193019BD7E700BF0054004043
:1022500000100240000C01400000014008B50E488B
:102260000E4B03604FF48273436000238360C360AE
:10227000036143614FF4007282610822C26103620C
:10228000436283620A23C36200F00AFF00B908BDFB
:10229000FFF7BAF8FBE700BF540A00200030014006
:1022A00010B586B00023029303930493059302684C
:1022B0001A4B9A4201D006B010BD03F560439A69EB
:1022C00042F480529A619A6902F480520092009A14
:1022D0009A6942F008029A619B6903F0080301932E
:1022E000019B2823029302230393032305930C4CA1
:1022F00002A92046FFF7E4FC102302930023039376
:10230000049302A92046FFF7DBFC064A536843F01A
:10231000E06343F001035360CDE700BF00300140AC
:10232000000C01400000014008B50A480A4B036058
:102330004FF4E133436000238360C36003610C22E8
:1023400042618361C36100F095FF00B908BDFFF7EA
:102350005BF8FBE7AC0A00200038014010B586B0FE
:102360000023029303930493059302681A4B9A4245
:1023700001D006B010BD03F558439A6942F480427B
:102380009A619A6902F480420092009A9A6942F036
:1023900008029A619B6903F008030193019B4023A3
:1023A000029302230393032305930C4C02A92046B6
:1023B000FFF786FC8023029300230393049302A972
:1023C0002046FFF77DFC064A536843F0E06343F084
:1023D00004035360CDE700BF00380140000C01400A
:1023E00000000140002800F0A18038B5044690F8B4
:1023F0002030D3B12268136843F001031360FFF764
:102400001BF9054623685A6812F0010F10D1FFF737
:1024100013F9401B0A28F5D9636A43F40033636259
:10242000052384F82030012038BDFFF783FEE1E763
:102430001A6822F002021A60FFF7FEF805462368C8
:102440005A6812F0020F0DD0FFF7F6F8401B0A2869
:10245000F5D9636A43F400336362052384F82030BE
:102460000120E1E7227E012A3DD01A6822F0800295
:102470001A60637E012B3BD02268136823F040036F
:102480001360A37E012B39D02268136823F0200348
:102490001360E37E012B37D02268136843F01003EA
:1024A0001360237F012B35D02268136823F00803C3
:1024B0001360637F012B33D02268136823F0040379
:1024C0001360A368E26813432269134362691343EC
:1024D0006268013A21681343CB61002060620123E6
:1024E00084F82030A0E71A6842F080021A60C0E742
:1024F0002268136843F040031360C2E72268136840
:1025000043F020031360C4E72268136823F010032C
:102510001360C6E72268136843F008031360C8E736
:102520002268136843F004031360CAE70120704770
:1025300003685A6912F4806F01D1002070476FF46C
:1025400080625A6100230363202280F83D2080F8D6
:102550003E30026C42F00402026480F83C300120FC
:1025600070472DE9F04106460C46174698463BE079
:10257000FFF762F8069BC01A404502D8B8F1000F79
:1025800032D1012D18D033689B6924EA03039BB232
:10259000B3FA83F35B099F4226D1002333632022E1
:1025A00086F83D2086F83E30326C42F020023264DC
:1025B00086F83C30012027E033685B6924EA030396
:1025C0009BB2B3FA83F35B09E5E733685B6924EAFE
:1025D000030C1FFA8CFCBCFA8CFC4FEA5C1C6745B0
:1025E00011D1B8F1FF3FC3D1C4F30745012DECD0A1
:1025F00033689B6924EA030C1FFA8CFCBCFA8CFC40
:102600004FEA5C1CEBE70020BDE8F0812DE9F843C0
:1026100005460E469046994653E01A6842F4007209
:102620001A602B686FF480625A6100232B632022AA
:1026300085F83D2085F83E302A6C42F004022A6479
:1026400085F83C3001204AE0FEF7F6FFA0EB0900D8
:10265000404502D8B8F1000F33D1012F17D02B68B5
:102660009B6926EA03039BB2003B18BF012343B3D7
:1026700000232B63202285F83D2085F83E302A6C0C
:1026800042F020022A6485F83C30012027E02B68C4
:102690005B6926EA03039BB2003B18BF0123E6E710
:1026A0002B689C6926EA0404A4B2003C18BF0124EC
:1026B000A4B12B685A6912F4806FAED1B8F1FF3F14
:1026C000C2D1C6F30747012FEAD12B685C6926EA1D
:1026D0000404A4B2003C18BF0124E9E70020BDE8CF
:1026E000F8830000F0B583B004460D4616461F4639
:1026F000C36A082B0DD0012B0BD013F5803F08D0F7
:10270000036B122B0AD10268136843F480731360C1
:1027100004E02268136843F4807313600097334623
:1027200000224FF001112046FFF71BFF80B92369FB
:10273000B3F5804F16D1236805F0FE051D613B46B9
:10274000324613492046FFF761FFF8B903B0F0BDE8
:1027500023681B6813F4807F02D04FF40073236456
:102760000320F3E7EB11226803F0060343F0F003C4
:1027700013613B46324607492046FFF747FF18B929
:102780002368EDB21D61DAE70120DFE70120DDE714
:10279000020001000800010070B504460D4616460F
:1027A00023685B6913F0800F21D12046FFF7C0FE3C
:1027B000F8B9B5F1FF3FF3D0FEF73EFF801BA8420A
:1027C00001D8002DECD123685B6913F0800FE7D1AD
:1027D00000232363202284F83D2084F83E30226CBD
:1027E00042F02002226484F83C30012000E0002006
:1027F00070BD0120FCE700002DE9F04784B00446DD
:102800000D46164699460C9FDDF834800268136821
:1028100043F4806313600368196841F480711960A0
:10282000CDF800803B4600224FF00111FFF799FEE2
:1028300070B95FFA85FA236805F0FE051D6143460D
:102840003A4641492046FFF7E1FE68B1012008E021
:1028500023681B6813F4807F02D04FF40073236455
:10286000032004B0BDE8F0870023039323685A696E
:1028700003929B690393039B424639462046FFF728
:102880008BFF80B9B9F1010F18D12368F6B21E6130
:10289000424639462046FFF77FFF68B3236C042B7E
:1028A00024D00120DDE7236C042B01D00120D8E7E0
:1028B0002268136843F400731360F7E72368320A51
:1028C0001A61424639462046FFF766FF18B9236869
:1028D000F6B21E61DCE7236C042B01D00120C0E7B7
:1028E0002268136843F400731360F7E722681368E3
:1028F00043F400731360D4E72268136843F48073D1
:102900001360CDF800803B4600224FF001112046B5
:10291000FFF727FE68B922684AF0010313614346B6
:102920003A4609492046FFF771FE002899D0012058
:1029300097E723681B6813F4807F02D04FF400737D
:10294000236403208DE700BF0200010070B5044638
:102950000D46164623685B6913F0040F21D120460B
:10296000FFF7E6FDF8B9B5F1FF3FF3D0FEF764FEDF
:10297000801BA84201D8002DECD123685B6913F0BD
:10298000040FE7D100232363202284F83D2084F83C
:102990003E30226C42F02002226484F83C30012058
:1029A00000E0002070BD0120FCE770B504460D4634
:1029B000164614E06FF010025A61002323632022B0
:1029C00084F83D2084F83E30226C226484F83C3048
:1029D000012025E023685B6913F0400F10D02368C5
:1029E000586910F0400F1AD1586910F0100FE1D15A
:1029F000FEF722FE801BA842ECD8002DEFD1E9E7BC
:102A000000232363202284F83D2084F83E30226C8A
:102A100042F02002226484F83C30012000E00020D3
:102A200070BD0000002800F0CC8070B5044690F81E
:102A30003D30002B77D0242384F83D302268136882
:102A400023F0010313602268136843F4004313600A
:102A50002268136823F400431360FFF711F96268DA
:102A60005A4B9A4264D85A4B98428CBF0023012398
:102A7000002B40F0A8805749A1FB00318B0C256842
:102A80006A6822F03F0242EA91426A6021680A6A5B
:102A900022F03F0266684D4DAE424FD801331343DA
:102AA0000B622168CA6922F44F4222F0FF02666875
:102AB000464B9E424CD8431E7600B3FBF6F30133DF
:102AC00040F6FC70034278D0C3F30B031343CB6191
:102AD00021680B6823F0C003E269206A02431343B4
:102AE0000B6021688B6823F4034323F0FF03226902
:102AF000E068024313438B602168CB6823F0FF0337
:102B00006269A06902431343CB602268136843F0F3
:102B10000103136000202064202384F83D302063EB
:102B200084F83E0070BD80F83C30FFF75BFB82E725
:102B3000294B98428CBF0023012399E74FF49675E7
:102B400005FB03F3254DA5FB03539B090133A6E7C2
:102B5000A368BBB9451E06EB460CB5FBFCF5013579
:102B6000C5F30B05B5FA85F56D0945BBC3B9013849
:102B700006EB4603B0FBF3F30133C3F30B0343F45B
:102B80000043A3E7451E06EB860C0CEB8C0CB5FB53
:102B9000FCF50135C5F30B05B5FA85F56D09E4E7DC
:102BA000013806EB860303EB8303B0FBF3F3013339
:102BB000C3F30B0343F4404388E7042386E7012370
:102BC00084E7012070470120ACE700BFA086010028
:102BD0007F841E0083DE1B43FF083D00D34D62103F
:102BE0002DE9F04385B004460F46914698460C9E69
:102BF000FEF722FD054694F83D00C0B2202804D01F
:102C00000227384605B0BDE8F0830095192301225C
:102C10004F492046FFF7A5FC002840F0928094F829
:102C20003C30012B00F08F80012384F83C30236876
:102C30001A6812F0010F03D11A6842F001021A60FB
:102C40002268136823F400631360212384F83D3065
:102C5000102384F83E3000232364C4F82490A4F8A1
:102C60002A80638D23853B4BE3622B4632463946EF
:102C70002046FFF737FD0746002866D1002303935F
:102C800023685A6903929B690393039B11E0236CA9
:102C9000042B01D00127B4E72268136843F40073C2
:102CA0001360F7E72A4631462046FFF74FFE00281B
:102CB0002ED1238D002B36D02A4631462046FFF7F1
:102CC0006BFD0028E3D1626A236812781A61606A9A
:102CD000431C6362618D89B2013989B26185238D9C
:102CE000013B9BB223852268516911F0040FD9D0B2
:102CF000002BD7D043781361636A01336362638D1D
:102D00009BB2013B9BB26385238D013B2385C9E7C1
:102D1000236C042B01D0012773E72268136843F466
:102D200000731360F7E72268136843F400731360BD
:102D3000202384F83D30002384F83E3084F83C3072
:102D40005FE702275DE702275BE7012759E700BF3E
:102D5000020010000000FFFF2DE9F04389B0044697
:102D60000F4690469946129E00230793FEF764FC97
:102D7000054694F83D00C0B2202804D0022738460A
:102D800009B0BDE8F083009519230122814920464E
:102D9000FFF7E7FB002840F0728194F83C30012BEC
:102DA00000F06F81012384F83C3023681A6812F028
:102DB000010F03D11A6842F001021A6022681368F9
:102DC00023F400631360222384F83D30402384F809
:102DD0003E3000232364109B6362BDF8443063855A
:102DE000638D23856C4BE362019500964B4642460A
:102DF00039462046FFF700FD0746002840F0438192
:102E0000238D5BB9039323685A6903929A690392ED
:102E1000039A1A6842F400721A60EDE0012B0FD099
:102E2000022B21D02268136843F4806313600023CF
:102E3000069323685A6906929B690693069BDBE01A
:102E40002268136823F48063136072B6002304932E
:102E500023685A6904929A690492049A1A6842F49F
:102E600000721A6062B6C7E02268136843F4006318
:102E7000136072B60023059323685A6905929A6914
:102E80000592059A1A6822F480621A6062B6B3E06D
:102E90002A4631462046FFF788FD002840F0F5809D
:102EA00023681A69636A1A70636A01336362238D47
:102EB000013B2385638D9BB2013B9BB263859BE005
:102EC00000953346002235492046FFF74AFB00288B
:102ED00040F0DF802268136823F48063136072B6C9
:102EE00023681A69636A1A70636A01336362238D07
:102EF000013B2385638D9BB2013B9BB26385284BCD
:102F00001B68DB08274AA2FB03231B0A03EB83038E
:102F1000C3EBC3030793079B013B0793079B002B5E
:102F200028D023685A6912F0040FF4D01A6842F4CA
:102F300000721A6023681A69636A1A70636A01333F
:102F40006362238D013B2385638D9BB2013B9BB262
:102F5000638562B623681A69636A1A70636A01330B
:102F60006362238D013B2385638D9BB2013B9BB242
:102F7000638541E02363202284F83D2084F83E30BD
:102F8000226C42F02002226462B684F83C300127B1
:102F9000F5E600BF020010000000FFFF0400010082
:102FA0000800002089B5F8142A4631462046FFF76C
:102FB000FCFC00286FD123681A69636A1A70626A80
:102FC000531C6362238D013B2385638D9BB2013BC0
:102FD0009BB263852368596911F0040F0CD01B69FB
:102FE0005370636A01336362238D013B2385638DD4
:102FF0009BB2013B9BB26385238D002B36D0032B04
:10300000D2D8012B3FF444AF022B7FF459AF009587
:103010003346002221492046FFF7A3FA002836D183
:1030200072B62268136843F40073136023681A6948
:10303000636A1A70636A01336362238D013B2385DF
:10304000638D9BB2013B9BB2638562B623681A69AC
:10305000636A1A70636A01336362238D013B2385BF
:10306000638D9BB2013B9BB26385C5E7202384F847
:103070003D30002384F83E3084F83C307FE6022760
:103080007DE602277BE6012779E6012777E601271F
:1030900075E6012773E6012771E600BF0400010011
:1030A000002856D010B50446436A33B94368B3F5D7
:1030B000827F05D00023C36102E0002303614361E6
:1030C0000023A36294F85130002B3CD0022384F8F3
:1030D00051302268136823F040031360636803F4DF
:1030E0008273A26802F404421343E26802F40062AD
:1030F0001343226902F002021343626902F00102E3
:103100001343A26902F400721343E26902F0380229
:103110001343226A02F080021343A26A02F40052AF
:10312000216813430B60638B226803F00403536030
:103130002268D36923F40063D36100206065012312
:1031400084F8513010BD84F850302046FFF7A8F8BD
:10315000BCE701207047000010B5044602681369FF
:1031600023F44053C1680B4313618368026913431E
:1031700042691A430168CB6823F4B05323F00C036F
:103180001343CB600268536923F4407381690B4396
:1031900053610268134B9A4220D0FEF771FD02463C
:1031A00002EB820202EB820263689B00B2FBF3F245
:1031B0000D48A0FB02314909642303FB11231B01C5
:1031C0003233A0FB03235B0903F0F00202EB011290
:1031D00003F00F03216813448B6010BDFEF760FD00
:1031E0000246DDE7003801401F85EB512DE9F84329
:1031F00005460F4616469946DDF820802C6824685F
:1032000037EA04030CBF4FF0010C4FF0000CB4453B
:103210002DD1B8F1FF3FF1D0B8F1000F05D0FEF786
:103220000BFAA0EB09004045E8D92A6802F10C032B
:1032300053E8003F23F4D0730C3242E800310029F8
:10324000F3D12A6802F1140353E8003F23F001038D
:10325000143242E800310029F3D1202385F84130AF
:1032600085F84230002385F84030032000E000203C
:10327000BDE8F88360B310B5044690F8413013B34D
:10328000242384F841302268D36823F40053D360A8
:103290002046FFF761FF2268136923F4904313610E
:1032A0002268536923F02A0353612268D36843F4E8
:1032B0000053D36000206064202384F8413084F8F8
:1032C0004230606310BD80F84030FFF747F8D7E721
:1032D000012070472DE9F04182B01E4690F8413040
:1032E000DBB2202B4BD104460D46904600294AD034
:1032F0000AB9012044E000234364212380F84130CF
:10330000FEF79AF90746A4F82480A4F82680A3685B
:10331000B3F5805F02D04FF000080FE02369FBB1E6
:103320004FF000080AE038F8023B2268C3F30803B4
:103330005360E28C92B2013A92B2E284E38C9BB287
:103340008BB100963B46002280212046FFF74EFFBE
:10335000D8B9002DE7D015F8012B23685A60E8E7AB
:10336000A8460025EAE700963B4600224021204679
:10337000FFF73CFF58B9202384F8413000E00220D9
:1033800002B0BDE8F0810120FAE70320F8E703204E
:10339000F6E700002DE9F047C6B08246894614469C
:1033A0001D464EAE56F8047B4FF080084246002181
:1033B00026A800F053FA4246002106A800F04EFA73
:1033C00005963246514626A802F05CF8B9F5805FB2
:1033D0001ED041F20103994532D041F202039945D2
:1033E00039D041F20303994540D041F20403994595
:1033F00023D126A90291019700952346214A8021D5
:1034000006A800F07DFA4FF47A70FEF71BF9F0E79A
:1034100026AB02930197009523461B4A414606A816
:1034200000F06EFA06A800F0ADFA421C4FF0FF3330
:1034300092B206A91548FFF74DFF46B0BDE8F087E8
:1034400026AB0293019700952346114A802106A8D6
:1034500000F056FAE6E726AB029301970095234663
:103460000C4A802106A800F04BFADBE726AB02935A
:10347000019700952346084A802106A800F040FAEB
:10348000D0E700BFC89A0008F8990008AC0A0020ED
:103490002C9A0008609A0008949A000800B5DDB0E4
:1034A00040F26F1208496846FCF752FE684600F089
:1034B00069FA421C4FF0FF3392B269460348FFF7A6
:1034C00009FF5DB05DF804FBFC9A0008AC0A00201F
:1034D0004840002303E04000C0B20133DBB2072BB9
:1034E00007D810F0800FF6D04000C0B280F007007F
:1034F000F3E7704700B585B000684FF4FA730293A4
:103500000123019300920A461021FFF725FC18B908
:10351000002005B05DF804FB054B00931923054A14
:1035200041F203010448FFF735FF4FF0FF30F0E7A9
:10353000CC9C00086C9C00088C9C000870B584B082
:1035400006461446CDB28DF80C508DF80D20102192
:103550000020FFF7BDFF2946FFF7BAFF2146FFF71E
:10356000B7FF8DF80E004FF4FA730093032303AAFC
:1035700010213068FFF734FB10B9002004B070BD93
:10358000054B00932A23054A41F203010448FFF743
:1035900001FF4FF0FF30F1E7BC9C00086C9C000875
:1035A000A49C000830B583B004460160FF220021CE
:1035B000FFF7C4FF19220B212046FFF7BFFF10229F
:1035C00004212046FFF7BAFFC32205212046FFF75A
:1035D000B5FF01AA50212046FFF78CFF0DF105022F
:1035E00059212046FFF786FF9DF805209DF80430FD
:1035F0005B0003F0180343EA521303F26D13A38038
:10360000A21D51212046FFF775FF0DF1030206218F
:103610002046FFF76FFF9DF8032042F008028DF867
:10362000032042F002028DF8032006212046FFF716
:1036300085FF0DF1020207212046FFF75BFF9DF891
:10364000022042F040028DF8022007212046FFF7B9
:1036500075FF0DF1010208212046FFF74BFF9DF891
:10366000012042F040028DF8012042F020028DF846
:10367000012008212046FFF761FFE088C0F5825055
:103680001430FDF779FB0546A088FCF729FF0022DE
:10369000174BFDF7B9F8FDF765FA01462846FDF727
:1036A00073FCFDF70DFDC0F3071209212046FFF75B
:1036B00045FFE088C0F528600C30FDF75DFB05464E
:1036C000A088FCF70DFF0022094BFDF79DF8FDF7E0
:1036D00049FA01462846FDF757FCFDF7F1FCC0F317
:1036E00007120A212046FFF729FF002003B030BD52
:1036F00000408F4000000000F0B583B00546002672
:1037000037E09DF80440240204F47C549DF8053011
:103710001C43A888FCF7E4FE0022294BFDF774F84F
:10372000FDF720FA07462046FDF722FB0146384602
:10373000FDF776FB0446E888FDF71AFB01462046B4
:10374000FDF766FA1F49FDF71FFCB41C45F824007D
:10375000FCF7D8FE16A3D3E90023FCF72BFF16A332
:10376000D3E90023FDF750F8FDF7FCF945F82400F4
:103770000136042E16DC7400A4B204F10C0189B2E7
:1037800001AA2846FFF7B6FE78B904F10D010DF144
:10379000050289B22846FFF7ADFE0028B1D04FF0F0
:1037A000FF3000E0002003B0F0BD4FF0FF30FAE73B
:1037B000CDCCCCCCCCCC10409A9999999919194080
:1037C00000408F4000007A44FEF716FC0B480C497D
:1037D0000C4A002302E0D458C4500433C4188C426D
:1037E000F9D3094A094C002301E013600432A242D4
:1037F000FBD300F00FF8FDF73FFE704700000020FC
:10380000B8090020ECA00008B8090020400B0020F7
:10381000FEE7000070B50D4E0D4D761BB61006D0BC
:10382000002455F8043B01349847A642F9D1094ECB
:10383000094D06F085F8761BB61006D0002455F821
:10384000043B01349847A642F9D170BDE0A00008BE
:10385000E0A00008E8A00008E0A00008830730B559
:1038600048D0541E002A3FD00346CAB201E0013CB2
:103870003AD303F8012B9D07F9D1032C2DD9CDB2F2
:1038800045EA05250F2C45EA054536D9A4F1100275
:1038900022F00F0C03F1200EE6444FEA121C03F154
:1038A000100242E9045542E9025510327245F8D13E
:1038B0000CF1010214F00C0F03EB021204F00F0CD8
:1038C00013D0ACF1040323F003030433134442F890
:1038D000045B9342FBD10CF003042CB1CAB21C442C
:1038E00003F8012B9C42FBD130BD64461346002CEB
:1038F000F4D1F9E703461446BFE71A46A446E0E7C9
:103900000CB410B51E4B00291C689CB033DB4FF47F
:1039100002734FF6FF7CADF81430029006901FAB97
:1039200016D001391E9A04910791204602A90193ED
:10393000ADF816C000F054F8421C01DA8B23236066
:103940000022029B1A701CB0BDE8104002B0704704
:103950000491079120461E9A02A90193ADF816C062
:1039600000F03EF8431C01DA8B2323601CB0BDE855
:10397000104002B070478B234FF0FF302360F5E713
:103980000C00002020F0030110F00300C0F1000043
:1039900051F8043B00F1040C4FEACC0C6FF000022C
:1039A0001CBF22FA0CF213434FF0010C4CEA0C2C12
:1039B0004CEA0C4CA3EB0C0222EA030212EACC12F2
:1039C00004BF51F8043B0430F4D0C2F1000102EA14
:1039D0000102B2FA82F2C2F11F0200EBD20070477C
:1039E0002DE9F04FD5B00C460C9191460E930A90FC
:1039F00002F0D6FE036818461793FFF7C3FFA389AA
:103A00001690190603D52369002B00F08F87002438
:103A10002BAB224698464D46CDE929442893129473
:103A200000230024CDE914342B78CDE91922CDE907
:103A30001B2218920892002B00F0CE81AA4604E0C7
:103A40001AF8013F002B00F00981252BF8D1BAEBC1
:103A5000050640F007819AF80030002B00F0BC8189
:103A600000234FF0FF324FF02B0920241F469AF815
:103A7000016007920AF1010A8DF8833009930AF177
:103A8000010AA6F120035A2B00F22081DFE813F08F
:103A9000CA021E011E01C5021E011E011E01A30253
:103AA0001E011E016A00F3021E014702D9021E0117
:103AB000D4025B005B005B005B005B005B005B00B3
:103AC0005B005B001E011E011E011E011E011E0186
:103AD0001E01B0011E010B027A00B001B001B0015D
:103AE0001E011E011E011E019E021E011E01B600C6
:103AF0001E011E011E0119021E014C021E011E01A3
:103B00003F071E011E011E011E011E011E011E0196
:103B10001E01B0011E010B027C00B001B001B0011A
:103B200091027C0075001E0184021E017002B80023
:103B30005E0275001E01190272001C071E011E01A3
:103B40001F071E0172000022A6F130031AF8016B54
:103B500002EB820203EB4202A6F13003092BF5D9F6
:103B600009928EE70E9B53F8042B002A09920E93BC
:103B7000C0F2D2819AF8006081E79AF8006047F0BD
:103B800020077CE747F01007BA060E9B40F17D81C5
:103B9000073323F007031A465B6852F8084B99462F
:103BA0000E92002BC0F27F85079B013301F0398014
:103BB00054EA090327F0800B00F005850A2C79F1FF
:103BC000000380F0938701235F4630348DF84F4126
:103BD0000B930DF24F15079A0B9900238A42B8BF39
:103BE0000A4606929DF883200D930F93139310932A
:103BF000002A7CD0069B0133069378E047F010073B
:103C000017F0200900F032810E9B073323F00703E1
:103C1000D3F8049053F8084B0E93002327F4806BDD
:103C200000228DF88320079A511C00F02A8254EA62
:103C300009012BF0800740F02382002A41F02B80FD
:103C4000002B40F0C5841BF001030B9300F054855A
:103C500030230DF24F158DF84F31BCE7BAEB050656
:103C600000F0BA802A9BC8E9005633442A93299B66
:103C70000133072B299305DC08F10808089B33441E
:103C80000893E8E60C990A9828AA03F0B7FC80B9D3
:103C90000DF1AC08F2E70C990A9828AA03F0AEFCE3
:103CA000002800F08A800D9B1BB10D990A9802F044
:103CB00077FC0C9B9B8913F0400F089B18BF4FF0BB
:103CC000FF330893089855B0BDE8F08F002E00F040
:103CD0008380012300228DF8EC6006933BAD8DF8C4
:103CE00083200B930D9207920F921392109217F06C
:103CF000020302D006990231069117F0840B07D116
:103D000009990698A1EB0009B9F1000F00F3368379
:103D10002A9C82B10122C8F80420299A0134013278
:103D20000DF18301072A2A942992C8F8001000F3A4
:103D3000698308F108087BB10223C8F80430299B85
:103D40000234013321AA072B2A942993C8F80020B2
:103D500000F36C8308F10808BBF1800F00F02E829D
:103D6000079B0B9AA3EB020BBBF1000F00F37182D0
:103D7000FB0500F1C5810B9BC8F800501C44C8F836
:103D80000430299B2A940133072B299300F3EA82FC
:103D900008F108087B0705D5099B069A9D1A002D96
:103DA00000F35083DDE9083206998A42ACBF9B18C4
:103DB0005B180893002C7FF46EAF002329930D9BB2
:103DC0001BB10D990A9802F0EBFB55460DF1AC08BA
:103DD0002B78002B7FF432AE2A9B002B3FF469AF87
:103DE0000C9C0A98214628AA03F008FCA38962E7E4
:103DF0000E9B073323F00702F2E80234CDE91434B6
:103E0000DDE9143424F00044994618460E92214608
:103E10004FF0FF32B64BFCF767FE002840F0968467
:103E2000484621464FF0FF32B14BFCF73FFE0028D9
:103E300040F08C84DDE9140100220023FCF72CFE05
:103E4000002840F0A6879DF8832000210320A94D7B
:103E5000A94B27F080070D910690472EC8BF1D463D
:103E600007910B900F9113911091C1E617F0100379
:103E700040F0628417F0400200F07B870E9A99466A
:103E800052F8044B0E92A4B2C7E653F8044B0E93BB
:103E9000FB0600F141847D0640F13B8444F3C039C8
:103EA0004B4624B27DE6012000220E9B069053F87B
:103EB000041B3BAD8DF883208DF8EC100E930B9016
:103EC00010E74FF000090E9C079B54F8045B8DF837
:103ED0008390002D00F0EE865A1C00F060851A4693
:103EE0004946284602F014FF0D90002801F09E80FC
:103EF0000D9B9DF883205B1B0B9323EAE373CDF8A6
:103F00001C900E940693CDF83490CDF83C90CDF8EB
:103F10004C90CDF840906BE6099B5B4209939AF870
:103F2000006047F00407AAE547F0100B1BF02009DA
:103F300000F0AA830E9B073323F007031A4652F8BA
:103F4000084BD3F804900E92012369E630227826BC
:103F50000E9B8DF8842053F8044B684A0E934FF063
:103F60000009022347F0020B8DF88560189257E68E
:103F7000BD0600F1D683FC0600F19386780600F1B9
:103F80005D87B90540F18D860E9B089953F8042B87
:103F9000554611700E931BE79AF800606C2E03BF14
:103FA0009AF8016047F020070AF1010A47F010076C
:103FB00065E59AF80060682E03BF9AF8016047F43F
:103FC00000770AF1010A47F0400758E59AF80060C7
:103FD00047F0080753E50A9E304602F0E1FB4368CC
:103FE00018461B93FFF7CEFC034630461C931E4633
:103FF00002F0D6FB83681993002E3FF4BBAD199BEA
:10400000002B3FF4B7AD199B1B78002B3FF4B2ADEA
:104010009AF8006047F4806731E59AF8006047F04D
:1040200001072CE59DF88330002B7FF4A3AD9AF8AF
:1040300000608DF8834022E59AF8006047F0800721
:104040001DE5524612F8016B2A2E01F0EB81A6F114
:104050003003092B924698BF002201F203801AF820
:10406000016B02EB820203EB4202A6F13003092B43
:10407000F5D9079205E59AF800608DF88390FEE483
:10408000BB46012B3FF49AAD022B54AD12D1189AC6
:1040900004F00F03D35C240944EA09744FEA1919A8
:1040A00005F8013D54EA0903F2D154AB5B1B5F46AE
:1040B0000B9390E504F00703E40844EA49744FEADF
:1040C000D909303354EA09012A4605F8013DF1D1F6
:1040D0001BF0010FE9D0302BE7D03023023A05F86E
:1040E000013C54AB9B1A5F4615460B9373E500BF2A
:1040F000FFFFEF7FE09C0008E49C0008F09C0008B4
:10410000652E40F3E980DDE9140100220023FCF76D
:10411000B9FC002800F0D2810123C8F80430299BA3
:10412000BF4A01330134072B2A942993C8F8002091
:1041300000F37A8508F10808229B129A934280F2D4
:10414000D782169B179A1C44C8E90023299B2A94FE
:104150000133072B299300F3DD8308F10808129B34
:104160005D1E002D7FF716AE102D41F34181DFF863
:10417000B492224649461026B946299B0F46DDF8DF
:1041800028B00C9C05E008F10808103D102D40F304
:10419000588501331032072BC8E90076CDE9293262
:1041A000F1DD2146584628AA03F028FA00287FF4BA
:1041B0007AADDDE929320DF1AC08E6E7099B069AF4
:1041C000A3EB020BBBF1000F7FF7CAADBBF1100FE1
:1041D00041F30580DFF84C9241462046A8464C4604
:1041E0001023299A0C9DDDF8289006E0ABF1100B06
:1041F000BBF1100F01F1080119DD01321030072A5F
:10420000C1E90043CDE92920F0DD2946484628AA26
:1042100003F0F4F900287FF446ADDDE92920ABF185
:10422000100BBBF1100F4FF010032BA9E5DC454636
:10423000A1468846044601325C44072ACDE9292478
:10424000C8F80090C8F804B000F3188508F1080811
:1042500086E5BBF1100F40F39785DFF8C891414622
:104260002046A8464C461023299A0C9DDDF828903C
:1042700006E0ABF1100BBBF1100F01F1080119DDE5
:1042800001321030072AC1E90043CDE92920F0DDD1
:104290002946484628AA03F0B1F900287FF403AD67
:1042A000DDE92920ABF1100BBBF1100F4FF010032B
:1042B0002BA9E5DC4546A1468846044601325C440C
:1042C000072ACDE92924C8F80090C8F804B000F303
:1042D000CE8108F108084BE5129B012B40F37E814B
:1042E0000123299E01341E44072EC8F800502A9449
:1042F000C8F80430299600F3E18108F10808169BFC
:104300000136179A1C44072EC8E90023CDE9296419
:1043100000F3E18108F108080022DDE9140100231F
:10432000FCF7B0FB002840F07681129B0136013B80
:1043300001351C44072EC8F800502996C8F80430EF
:104340002A9400F35B8108F108081A9B01361C448B
:10435000C8F80430072E24ABCDE92964C8F8003032
:104360007FF716AD0C990A9828AA03F047F90028A0
:104370007FF499AC2A9C0DF1AC080BE5B9F1100F54
:1043800040F35086DDE929214046CDE91D36B84687
:1043900010244F460C9EA9460A9D04E0103F102FA2
:1043A00000F1080016DD01321F4B1031072AC0E969
:1043B0000034CDE92921F1DD3146284628AA03F051
:1043C0001DF900287FF46FACDDE92921103F102F83
:1043D0002BA8E8DC4D46DDE91D36B9464746804648
:1043E00009EB010401321049072ACDE92924C8F854
:1043F0000490C8F8001000F3C3839DF8832008F1EF
:10440000080886E40C990A9828AA1D9303F0F6F888
:1044100000287FF448AC2A9C1D9B0DF1AC088AE46F
:10442000209D0008349D0008249D00080C990A98DE
:1044300028AA03F0E3F800287FF435AC2A9C0DF19C
:10444000AC0889E4102D40F3C4861026299B0A9FEE
:10445000DDF8309004E0103D102D08F1080817DD5C
:104460000133B84A1034072BC8E90026CDE92934B6
:10447000F1DD4946384628AA03F0C0F800287FF449
:1044800012ACDDE92934103D102D0DF1AC08E7DC4C
:104490000133AC4A2C44072BCDE92934C8F8045029
:1044A000C8F800207FF77EAC0C990A9828AA03F080
:1044B000A5F800287FF4F7AB2A9C73E42299002921
:1044C00040F36F83DDF84090129B9945A8BF994651
:1044D000B9F1000F0BDD299B4C440133072BC8E9D0
:1044E00000592A94299300F31D8508F10808109EAD
:1044F000B9F1000FA8BFA6EB0906002E00F3258234
:10450000DDF840B07805AB4400F15F82229B129A3F
:10451000934202DBF90740F17684169A1799144406
:10452000C8E90012299A2A940132072A299200F335
:10453000138508F10808129AAE18A6EB0B06D51AD7
:10454000AE42A8BF2E46002E0DDD299B3444013318
:10455000072BC8F800B0C8F804602A94299300F328
:10456000718508F10808002EA8BFAD1B002D7FF74C
:1045700011AC102D40F33C87DFF8CC912246494620
:104580001026B946299B0F46DDF828B00C9C05E0A3
:1045900008F10808103D102D40F353830133103209
:1045A000072BC8E90076CDE92932F1DD21465846CE
:1045B00028AA03F023F800287FF475ABDDE929323F
:1045C0000DF1AC08E6E7079B002B7FF4FCAA5F46E1
:1045D000002354AD07930B93FFF7FDBAFA073FF59D
:1045E0007FAE0123299E01341E44072EC8F80050D7
:1045F0002A94C8F8043029967FF7A5AE0C990A983A
:1046000028AA02F0FBFF00287FF44DABDDE9296406
:104610000DF1AC0899E6129B5D1E002D7FF795AE5B
:10462000102D40F3DF86224607974FF0100BDFF87E
:1046300018910A9C0C9F05E008F10808103D102D08
:1046400040F37F8301361032072EC8E9009BCDE985
:104650002962F1DD3946204628AA02F0CFFF002862
:104660007FF421ABDDE929620DF1AC08E6E70C9996
:104670000A9828AA02F0C2FF00287FF414AB2A9CF3
:104680000DF1AC08FFF774BB1BF010030E9A3AD182
:104690001BF0400133D052F8044B99460E9201238F
:1046A000A4B2FFF7BDBA2D2364428DF88330BB4618
:1046B0004FF0010369EB4909FFF7B5BA0C990A9865
:1046C00028AA02F09BFF00287FF4EDAADDE9296407
:1046D0000DF1AC0813E60C990A9828AA02F08EFF97
:1046E00000287FF4E0AADDE929640DF1AC0813E6A7
:1046F000FD077FF54FAB24E554ADFFF76CBA1BF413
:10470000007940F08A8352F8044B01230E92FFF7A0
:1047100087BAB80500F19B834FEAE4794B46FFF76F
:1047200040BA0E9B089853F8041BC2175546C1E9BE
:1047300000020E93FFF74CBB0E9B53F8044B0E93F5
:10474000FFF76BBA249D0008349D0008DDE91401D1
:1047500002460B46FCF7C8F9002840F0E985612EB7
:1047600000F07D85412E00F08B84079B013300F023
:104770008F8326F02003472B069300F08F85DDE919
:10478000141247F480730F931346002BC0F2B085C8
:104790000B9300238B461D930D93069B462B00F035
:1047A000E983452B00F0468507990B9B0191022177
:1047B000009126A9049123A9039122A95A460A9897
:1047C000029100F021FF069B0546472B40F03A86F8
:1047D00017F0010FB9460F9F40F0FE84269B5B1B2C
:1047E0001293069B472B00F06E83069B462B00F02E
:1047F000F083229B1093109B069A013B412A22933F
:1048000000F0BB850021F2B2002B8DF89020B6BFDE
:104810002D222B22109B8DF89120B8BFC3F10103EC
:10482000092B40F39B850DF19F0C6246B64F1C4649
:10483000104687FB0312D917C1EBA20101EB8102DD
:10484000A3EB42023032632C00F8012C0B4600F13E
:10485000FF32ECDC3033811EDBB28C4502F8013CC8
:1048600040F2F9850DF1920101E012F8013B944507
:1048700001F8013BF9D10DF1A1030DF192021B1AD0
:10488000134424AA9B1A1A93129B1A9A012B1A44B6
:104890000B9240F381850B9B169A13440B930023D4
:1048A0000B9A29F4806722EAE27247F480770F932B
:1048B0000692139310931D9B002B40F02C839DF8C0
:1048C00083200793FFF794B9BB46FFF72FBB8F4BAD
:1048D000189317F0200900F0F5800E9B073323F0A2
:1048E0000703D3F8049053F8084B0E93F80709D543
:1048F00054EA090306D030238DF8856047F002079B
:104900008DF88430022327F4806BFFF789B9804B40
:104910001893DEE70C990A9828AA02F06FFE002887
:104920007FF4C1A92A9C0DF1AC0818E440210A9833
:1049300001F042FF0C9B18601861002800F0978579
:1049400040230C9A5361FFF762B8102E40F376852E
:10495000DFF8C091424648462146A846B9464FF086
:10496000100B0746299B0A9C0C9D04E00832103E60
:10497000102E40F3138201331031072BC2E9007B64
:10498000CDE92931F2DD2946204628AA02F036FE7B
:1049900000287FF488A9DDE929312BAAE7E728461A
:1049A000CDF81C900E94FEF7EDFF20EAE0739DF821
:1049B00083200B90CDF83490CDF83C90CDF84C90FE
:1049C000CDF840900693FFF713B9129B4246DDF8ED
:1049D0004C80EB185E460793CDF82CA0109721462B
:1049E000199FDDF87090DDF828A0DDF830B00F9B3E
:1049F0001395B8F1000F2ED083BB013F08F1FF38AB
:104A00001B9B4944C2E90039299B2A910133072B9A
:104A1000299360DC0832079B38789B1B8342A8BF30
:104A20000346002B1C460BDD29981944013007284A
:104A3000C2E900632A91299000F314813878083282
:104A4000002CB4BF0546051B002D0BDC06440F9B54
:104A5000B8F1000FD0D1002B00F026820F9B013B54
:104A60000F93CDE7102D40F39D841024299804E086
:104A7000103D102D02F1080216DD0130254B1031DA
:104A80000728C2E90034CDE92901F1DD5946504635
:104A900028AA02F0B3FD00287FF405A9DDE9290169
:104AA000103D102D2BAAE8DC01301A4B29440728B1
:104AB000CDE929015560136000F34182387808324E
:104AC0000644C4E717F0100300F0A0800E9B53F8D3
:104AD000044B0E930AE75946504628AA02F08EFD71
:104AE00000287FF4E0A82A992BAA94E700230BF46E
:104AF00080620696CDF82CA0CDF8348092461E46F2
:104B0000DDF8648054AF14E067666666F09C0008C8
:104B1000049D0008349D00080023204649460A22CF
:104B2000FCF7EEFA0A2C79F100031BD30446894600
:104B30002F4620460A2200234946FCF7E1FA30328C
:104B40007D1E013607F8012CBAF1000FE4D098F869
:104B500000309E42E0D1FF2EDED00A2C79F1000316
:104B600080F0308154AB5B1BDDF82CA0CDF8648065
:104B700012965F46069EDDF834800B93FFF72BB844
:104B80000C990A9828AA1D9302F038FD00287FF49A
:104B90008AA89DF883202A9C1D9B0DF1AC08FFF785
:104BA000B8B80123C8F80430299BBC4A013301344A
:104BB000072B2A942993C8F8002000F3178108F1E5
:104BC0000808002940F08680129A07F00103134379
:104BD0003FF4E0A8169B17991A19C8E90013299BFE
:104BE0002A920133072B299300F3378108F1080833
:104BF000129901338C18072BCDE92934C8F80050DD
:104C0000C8F804107FF7C4A8FFF7ACBB17F0400248
:104C100000F0A5800E9A994652F8044B0E92A4B269
:104C200064E6BB46FEF7CABF0C990A9828AA02F0B0
:104C3000E5FC00287FF437A82A9C0DF1AC08FFF7AB
:104C40007BBA14463A464F46914601332C44072B13
:104C5000C8F80090C8F80450CDE929347FF798A827
:104C6000FFF780BB5946504628AA02F0C7FC00282F
:104C70007FF419A838782A992BAAE1E60C990A98AA
:104C800028AA02F0BBFC00287FF40DA82A9C0DF195
:104C9000AC08FFF765B8012BBB467FF4F5A9FEF71A
:104CA00092BF0E9B089953F8042B554611600E9342
:104CB000FFF78EB8062B294628BF06232A460795FC
:104CC0000D950693764D0E940B930F9113911091C1
:104CD000FEF78EBF169B17981A19C8E90003299B87
:104CE0002A920133072B299300F3B78008F10808B3
:104CF0000029BFF67DAF4E42103180F2A9834146B4
:104D00001024A846DFF89C91DDF828B00C9D04E043
:104D10000831103E102E40F3A78201331032072BCA
:104D2000C1E90094CDE92932F2DD2946584628AA86
:104D300002F064FC00287EF4B6AFDDE929322BA92D
:104D4000E7E71446079F01362C44072ECDE9296476
:104D5000C8F80090C8F804507FF7F5AA4EE417F49D
:104D600000790E9B66D053F8044B91460E93E4B243
:104D7000BCE517F400790E9B57D053F8044B9146CD
:104D80000E93E4B2FEF749BF299ADFF81891FFF7B6
:104D900095BA2D228DF88320FFF757B845469046E7
:104DA0003A460C464F46914601333444072BCDE931
:104DB0002934C8F80090C8F804605CDC08F10808E1
:104DC000FFF79EBB1C9B1B99ED1A1A46284602F062
:104DD000E1FB98F801300BB108F101082046494683
:104DE0000A2200230026FCF78BF99FE60C990A980B
:104DF00028AA02F003FC00287EF455AF22992A9CD1
:104E00000DF1AC08DDE6129AAE18A6EB0B06D51A2A
:104E1000AE42A8BF2E46FFF7A6BB52F8044B894608
:104E200001230E92E4B2FEF7FBBE53F8044B0E933F
:104E3000FEF7F3BE53F8044B0E9357E50E9B08990B
:104E400053F8042B554611800E93FEF7C1BF44F36F
:104E5000C0194B4664B2FEF7A4BE0C990A9828AA62
:104E600002F0CCFB00287EF41EAFDDE92932229946
:104E70000DF1AC083CE70C990A9828AA02F0BEFB99
:104E800000287EF410AF2A9C0DF1AC08FFF738BB68
:104E90000623079326F02003069370E4209D000864
:104EA000189D0008349D0008DDE91235EB189E427C
:104EB000B346199790460C4628BF9B46DDF82CA0B8
:104EC000109FFFF723BB229BDA1C109302DB079A8B
:104ED000934204DD023E26F0200306938BE4109BF0
:104EE000129A9342C0F2C28019F0010F00F01D82A5
:104EF000169A13440B9319F4806F00F01482109BE0
:104F00006726002B76DC0B9B23EAE37306930023D2
:104F10000F931393CFE42D2200238DF88320079362
:104F2000FEF768BE0C990A9828AA02F067FB0028D1
:104F30007EF4B9AE2A9C0DF1AC08FFF7D8BA5946F9
:104F4000504628AA02F05AFB00287EF4ACAE38780E
:104F50002A992BAA06447AE50C990A9828AA02F005
:104F60004DFB00287EF49FAE229B2A9C0DF1AC08DD
:104F7000FFF7E1BA07990B9B01910321009126A944
:104F8000049123A9039122A95A460A98029100F09C
:104F90003BFB03780546302B00F01682229B079AD4
:104FA000B94613440F9FEC185846002200230B9972
:104FB000FBF768FD08B1234611E4269BA342BFF42A
:104FC0000EAC30215A1C26921970269B9C42F9D8AF
:104FD00005E4229A002A109240F30E82079909F004
:104FE00001030B4340F07E816626109B0B9319F45E
:104FF000806F88D019990B78FF2B00F02582002450
:10500000109A204604E001300131FF2B00F0598155
:10501000934280F25681D21A4B78002BF3D10B7851
:105020000134F2E7DDE92921FFF7DAB9079B9DF8A2
:1050300083200E9406930B9307900F90139010907B
:10504000FEF7D6BD0C990A9828AA02F0D7FA0028D4
:105050007EF429AE229D129B2A9C0DF1AC085D1BAB
:10506000FFF781BA00230793FEF70BBD129B169A38
:105070009A18109B0B92002B40F385816726B6E7A8
:1050800030238DF8843058238DF88530079B47F006
:105090000204632B00F3C48000233BAD0D9347F45F
:1050A00081730F93DDE914121346002B2746C0F2DB
:1050B00084800B9300238B461D9326F020030693D8
:1050C000612E00F01881412E7FF467AB22AA58466A
:1050D0000B9902F015FA00224FF07F53FBF76AFAA2
:1050E00002460B46CDE9102300220023FBF7CAFC41
:1050F00008B101232293AD4B0B93079BCDE912A678
:10510000CDE91E78DDE91067AB46DDF82CA003F190
:10511000FF39109506E00022002309F1FF39FBF763
:10512000B1FCE8B90022A24B30463946FBF742FAFF
:105130000F460646FBF7EEFC0446FBF7D1F90B469B
:10514000024639463046FBF77DF81AF80430B9F1CB
:10515000FF3FD8464D4606460F460BF8013BDAD1D5
:10516000304639460022934BA946DDF848A0109DF1
:10517000CDF84880CDE91001DDF87C80139E1E9F9C
:10518000FBF7A8FC80BBDDE910010022894BFBF78F
:1051900079FC08B1E10727D44B46002B06DB30220F
:1051A00001335B440BF8012B5B45FBD1ABEB0503F3
:1051B000B94612930F9FFFF714BB26F02003069306
:1051C0002D22DDE914349B4604F100431D920B931C
:1051D00076E7299BFFF75CB9079BEC18E4E6299A70
:1051E000DFF8D491FFF727B8129B26930B9B1BF88F
:1051F000012CD97B5B468A4209D1302003F8010C8F
:10520000269B5A1E269213F8012C9142F6D0392A79
:105210000BBF0B9A0132927AD2B203F8012CC5E788
:105220000A98591C01F0C8FA0546002800F01781B9
:105230000D9034E70221009107995A464C1C26A98B
:10524000049123A9039122A90B9B0A98019402912E
:1052500000F0DAF90546B9462C440F9FA4E6302346
:105260008DF8843078230FE7454688460133324471
:10527000072BCDE92932C8F80090C8F804607FF701
:10528000B5AC0C990A9828AA02F0B8F900287EF467
:105290000AADDDE929320DF1AC08A9E4079B002B2A
:1052A00008BF0123079347F480730F93159B002BCE
:1052B000C0F2B680DDF850B00D900B931D90FFF753
:1052C00073BA1991109213900F940F9A139B1C9913
:1052D00013440B9A01FB03230B9323EAE373069316
:1052E000FFF7E9BA169B6626D31819440B917EE6A0
:1052F00000230D9364E722AA58460B9902F000F9A7
:1053000000224FF07F53FBF755F902460B46CDE9DB
:10531000102300220023FBF7B5FB08B101232293E1
:10532000264B0B93E9E66726EDE5109B0B93E2E530
:10533000159B0320002BB8BF2D224FF00003A8BF00
:105340009DF8832019460D931D4D1E4BB8BF8DF857
:10535000832027F080070690FEF77FBD002944D107
:1053600030228DF892200DF19302303302F8013B88
:1053700024ABD31A1A93FFF787BA06F10F02012163
:10538000D2B2FFF741BAC3F101031A4422EAE27331
:1053900067260B920693BAE519F0010F3FF47FAA36
:1053A000FFF779BA2998FFF77FBB00BF049D00087B
:1053B000000030400000E03F349D0008F09C0008F1
:1053C000E89C0008EC9C00085846002200230B993A
:1053D000FBF758FB00287FF4E1AD079BC3F1010305
:1053E0002293DCE5DFF89890ADE40DF19202BCE782
:1053F000299BDFF88C9028E4079A09F0010959EA03
:10540000020304D10123662606930B937FE5169BC6
:10541000662601331A4422EAE2730B92069376E57C
:105420000D90CDE60E9B9AF80160924653F8042B3E
:105430000E9342EAE2730793FEF721BB299BDFF844
:105440004090B1E4079C06E700230F9313933CE7D9
:10545000DFF82C900AE702231A93FFF715BA0C998C
:105460008B8943F0400213468A81FEF724BC4FF03B
:10547000FF320C2308920A9A1360FEF723BC00BF88
:10548000349D00088C4630B504466FF00045134645
:10549000084A9BB01068084A69460392624605951F
:1054A000029500940494FEF79BFA0022009B1A7068
:1054B0001BB030BD0C0000200802FFFF024B13B1EF
:1054C000024800F005B8704700000000D5640008ED
:1054D000002301461A46184602F00EB92DE9F04F96
:1054E00003690C6985B0A342C0F28980013C01F1D7
:1054F0001405A30000F11408019355F8243058F85E
:10550000242001338A469A4208EB84018146B2FB8B
:10551000F3F605EB840702913AD30021AE464046EC
:105520000A46A34603955EF8045B0468ABB206FB2B
:1055300003132D0C190C06FB05119BB2D21A1FFA8E
:1055400084FC94448AB2C2EB144202EB2C421FFA50
:105550008CFC4CEA0243774540F8043B4FEA11418A
:105560004FEA2242DFD2019B5C4658F80330039D8C
:1055700073B9029B043B984504D307E0984504F1B6
:10558000FF3403D253F80429002AF7D0C9F8104099
:105590005146484601F08CFE00282CDB4046002393
:1055A000013655F8041BD0F800C08AB29A1A1FFAC7
:1055B0008CFE0B0C7244C3EB1C4303EB224392B2F0
:1055C00042EA0342AF4240F8042B4FEA2343E8D2B9
:1055D00058F8242008EB84036AB9043B984504D3A7
:1055E00007E0984504F1FF3403D253F80429002A58
:1055F000F7D0C9F81040304605B0BDE8F08F002064
:1056000005B0BDE8F08F00BF2DE9F04F90469946F8
:10561000016C99B00446CDE90489259D41B101236F
:10562000426C93408B604A6001F0ECFB00232364E2
:10563000B9F1000AB4BF012300232B60764BBCBF35
:105640002AF0004ACDF814A033EA0A0300F0AA8039
:10565000DDE904231046194600220023CDE90A01A2
:10566000FBF710FA074670B10123249A1360269BBA
:10567000002B00F0E68269481860431E03930398EC
:1056800019B0BDE8F08F16AB019317AB009320461D
:10569000DDE90A2301F0D2FE5FEA1A56054640F022
:1056A0009780DDE916763E4406F23240202840F32A
:1056B000B783C0F140000AFA00FA06F2124028FA55
:1056C00000F04AEA0000FAF7FBFE0123013E0F93C7
:1056D000A1F1F8710022524BFAF7B4FD48A3D3E9C7
:1056E0000023FAF767FF48A3D3E90023FAF7ACFDDC
:1056F000804630468946FAF7F3FE45A3D3E90023F6
:10570000FAF758FF02460B4640464946FAF79CFD19
:1057100080468946FBF7FEF9002283460023404677
:105720004946FBF7B9F9002840F07E82BBF1160F1D
:1057300000F26D82DDE90A013A4B03EBCB03D3E9BA
:105740000023FBF7A9F9002872D00023BE1B0E939B
:10575000731E0BF1FF3B069300F160820023099357
:10576000BBF1000F6BDA099BCDF81CB0A3EB0B0368
:105770000993CBF100030D93229B4FF0000B092BF3
:1057800066D8052B40F34A830026043B2293229BD4
:10579000023B032B00F26C86DFE813F061045E0429
:1057A0005504380442F20F73249ACAF3130A1360A3
:1057B0005AEA08031AD1269B002B00F068861A4B80
:1057C00003930833269A0398136019B0BDE8F08F4D
:1057D000DDE90A12C2F31303084643F07F510F9725
:1057E000A6F2FF36169F41F4401173E7269B002B6B
:1057F00040F0EF830D4B039341E700BFAFF3008010
:1058000061436F63A787D23FB3C8608B288AC63FC6
:10581000FB799F501344D33F0000F07F219D000887
:105820000000F83F909E0008489D0008449D000835
:10583000BE1B731E069300F18A840E900990069B8E
:105840005B44CDE9063B00230D93229B092B98D99D
:10585000002322934FF0FF330126089300230C9678
:1058600023930021089B61641293204601F0A4FA5F
:105870000390002800F00486039B2364089B0E2BF2
:1058800000F21481002E00F011810799002940F3E5
:105890006084AF4B01F00F0203EBC2030A46D3E969
:1058A00000674FEA2118D10540F11784DDE90A01AC
:1058B000A84B4FF0030AD3E90823FAF7A5FFCDE977
:1058C000100108F00F08B8F1000F13D0DFF8849230
:1058D00018F0010F09D0D9E9002330463946FAF70C
:1058E00069FE06460F460AF1010A5FEA680809F1F7
:1058F0000809EDD1DDE9100132463B46FAF784FF95
:10590000804689460E9B43B1002240464946924B51
:10591000FBF7C2F8002840F035855046FAF7E0FD65
:1059200042464B46FAF746FE8C4B0022FAF78CFCB7
:10593000A1F15073CDE910011193089B002B00F0E9
:105940009780079B1493089B13930C9B002B00F0EC
:10595000A984139A7E4B002003EBC20353E9022370
:105960007F49FAF751FFDDE91023FAF76BFCCDE927
:10597000100149464046FBF7CDF80746FAF7B0FD5F
:1059800002460B4640464946FAF75CFCDDE9102327
:10599000039E303706F8017B80468946FBF77CF88A
:1059A000002840F02E85CDF854B00027DDE910AB7B
:1059B0001095139D13942AE00137AF4280F22E8593
:1059C000504659460022674BFAF7F4FD0022654B1A
:1059D00082468B4640464946FAF7ECFD89468046AA
:1059E000FBF798F80446FAF77BFD02460B46404663
:1059F0004946FAF727FC303452465B4606F8014B1D
:105A000080468946FBF748F8002840F0F884424673
:105A10004B4600205049FAF715FC52465B46FBF70F
:105A20003BF80028C8D0DDE91343109D039A079383
:105A300002E0964200F0CD84B24616F8013D392BC3
:105A4000F7D00133DBB23370079B01330793C8E112
:105A50005046FAF745FD42464B46FAF7ABFD3F4B41
:105A60000022FAF7F1FBA1F15073CDE91001119377
:105A70004046494600223C4BFAF7E4FBDDE9108939
:105A80004B46424606460F46FBF724F8814600285F
:105A900040F0AF84DDE91001024601F100433046D9
:105AA0003946FAF7F9FF002840F04883179B002B8E
:105AB000C0F28C80079A0E2A00F38880244B03EBF7
:105AC000C203D3E900AB239B002B1BDA089B002BFE
:105AD00018DC40F031830022234B50465946FAF738
